{
  "contractName": "Mortal",
  "abi": [
    {
      "constant": false,
      "inputs": [],
      "name": "kill",
      "outputs": [],
      "payable": false,
      "stateMutability": "nonpayable",
      "type": "function"
    }
  ],
  "bytecode": "0x6080604052336000806101000a81548173ffffffffffffffffffffffffffffffffffffffff021916908373ffffffffffffffffffffffffffffffffffffffff16021790555060db806100526000396000f3fe6080604052348015600f57600080fd5b506004361060285760003560e01c806341c0e1b514602d575b600080fd5b60336035565b005b6000809054906101000a900473ffffffffffffffffffffffffffffffffffffffff1673ffffffffffffffffffffffffffffffffffffffff163373ffffffffffffffffffffffffffffffffffffffff1614608d57600080fd5b3373ffffffffffffffffffffffffffffffffffffffff16fffea265627a7a723158206ff354d297195ae3b189da00349ca3f7da434c597320052abac613608f07ad2b64736f6c63430005100032",
  "source": "pragma solidity ^0.5.0;\n\ncontract Ownable {\n  address owner;\n  constructor() public {\n    owner = msg.sender;\n  }\n\n  modifier Owned {\n    require(msg.sender == owner);\n    _;\n  }\n}\n\ncontract Mortal is Ownable {\n  function kill() public Owned { \n    selfdestruct(msg.sender);\n  }\n}\n\n\ncontract Game is Mortal {\n  uint minBet; // 최소 베팅액  \n\n  event Won(bool _result, uint _amount);\n\n  constructor(uint _minBet) payable public {\n    require(_minBet > 0);    \n    minBet = _minBet;    \n  }\n\n  function() external { \n    revert();\n  }\n\n  function play(uint _num) payable public {\n    require(_num > 0 && _num <= 5);\n    require(msg.value >= minBet);\n\n    uint winNum = random();\n    if (_num == winNum) {\n      uint amtWon = msg.value * 2;\n      if(!msg.sender.send(amtWon)) revert();\n      emit Won(true, amtWon);\n    } else {\n      emit Won(false, 0);\n    }\n  }\n\n  function getBalance() Owned public view returns(uint) {\n    return address(this).balance;\n  }\n\n  function random() public view returns (uint) {\n    return uint(keccak256(abi.encodePacked(now, msg.sender))) % 5 + 1;\n  }\n}",
  "sourcePath": "D:/app/klaytn/project_codes/7.numbergame/contracts/Game.sol",
  "compiler": {
    "name": "solc",
    "version": "0.5.16+commit.9c3226ce.Emscripten.clang"
  },
  "schemaVersion": "3.3.3",
  "updatedAt": "2022-04-21T01:22:21.059Z",
  "devdoc": {
    "methods": {}
  },
  "userdoc": {
    "methods": {}
  }
}