{
  "contractName": "TokenSales",
  "abi": [
    {
      "inputs": [
        {
          "internalType": "address",
          "name": "_tokenAddress",
          "type": "address"
        }
      ],
      "payable": false,
      "stateMutability": "nonpayable",
      "type": "constructor"
    },
    {
      "constant": true,
      "inputs": [],
      "name": "nftAddress",
      "outputs": [
        {
          "internalType": "contract ERC721Full",
          "name": "",
          "type": "address"
        }
      ],
      "payable": false,
      "stateMutability": "view",
      "type": "function"
    },
    {
      "constant": true,
      "inputs": [
        {
          "internalType": "uint256",
          "name": "",
          "type": "uint256"
        }
      ],
      "name": "tokenPrice",
      "outputs": [
        {
          "internalType": "uint256",
          "name": "",
          "type": "uint256"
        }
      ],
      "payable": false,
      "stateMutability": "view",
      "type": "function"
    },
    {
      "constant": false,
      "inputs": [
        {
          "internalType": "uint256",
          "name": "_tokenId",
          "type": "uint256"
        },
        {
          "internalType": "uint256",
          "name": "_price",
          "type": "uint256"
        }
      ],
      "name": "setForSale",
      "outputs": [],
      "payable": false,
      "stateMutability": "nonpayable",
      "type": "function"
    },
    {
      "constant": false,
      "inputs": [
        {
          "internalType": "uint256",
          "name": "_tokenId",
          "type": "uint256"
        }
      ],
      "name": "purchaseToken",
      "outputs": [],
      "payable": true,
      "stateMutability": "payable",
      "type": "function"
    },
    {
      "constant": false,
      "inputs": [
        {
          "internalType": "uint256[]",
          "name": "tokenIds",
          "type": "uint256[]"
        }
      ],
      "name": "removeTokenOnSale",
      "outputs": [],
      "payable": false,
      "stateMutability": "nonpayable",
      "type": "function"
    }
  ],
  "bytecode": "0x608060405234801561001057600080fd5b50604051610c09380380610c098339818101604052602081101561003357600080fd5b8101908080519060200190929190505050806000806101000a81548173ffffffffffffffffffffffffffffffffffffffff021916908373ffffffffffffffffffffffffffffffffffffffff16021790555050610b75806100946000396000f3fe60806040526004361061004a5760003560e01c806317fcfe221461004f57806350bc3605146100945780635bf8633a14610159578063c2db2c42146101b0578063d4ddce8a146101de575b600080fd5b34801561005b57600080fd5b506100926004803603604081101561007257600080fd5b81019080803590602001909291908035906020019092919050505061022d565b005b3480156100a057600080fd5b50610157600480360360208110156100b757600080fd5b81019080803590602001906401000000008111156100d457600080fd5b8201836020820111156100e657600080fd5b8035906020019184602083028401116401000000008311171561010857600080fd5b919080806020026020016040519081016040528093929190818152602001838360200280828437600081840152601f19601f820116905080830192505050505050509192919290505050610574565b005b34801561016557600080fd5b5061016e610790565b604051808273ffffffffffffffffffffffffffffffffffffffff1673ffffffffffffffffffffffffffffffffffffffff16815260200191505060405180910390f35b6101dc600480360360208110156101c657600080fd5b81019080803590602001909291905050506107b5565b005b3480156101ea57600080fd5b506102176004803603602081101561020157600080fd5b8101908080359060200190929190505050610ad8565b6040518082815260200191505060405180910390f35b60008060009054906101000a900473ffffffffffffffffffffffffffffffffffffffff1673ffffffffffffffffffffffffffffffffffffffff16636352211e846040518263ffffffff1660e01b81526004018082815260200191505060206040518083038186803b1580156102a157600080fd5b505afa1580156102b5573d6000803e3d6000fd5b505050506040513d60208110156102cb57600080fd5b810190808051906020019092919050505090503373ffffffffffffffffffffffffffffffffffffffff168173ffffffffffffffffffffffffffffffffffffffff161461037f576040517f08c379a00000000000000000000000000000000000000000000000000000000081526004018080602001828103825260198152602001807f63616c6c6572206973206e6f7420746f6b656e206f776e65720000000000000081525060200191505060405180910390fd5b600082116103f5576040517f08c379a00000000000000000000000000000000000000000000000000000000081526004018080602001828103825260168152602001807f7072696365206973207a65726f206f72206c6f7765720000000000000000000081525060200191505060405180910390fd5b6000809054906101000a900473ffffffffffffffffffffffffffffffffffffffff1673ffffffffffffffffffffffffffffffffffffffff1663e985e9c582306040518363ffffffff1660e01b8152600401808373ffffffffffffffffffffffffffffffffffffffff1673ffffffffffffffffffffffffffffffffffffffff1681526020018273ffffffffffffffffffffffffffffffffffffffff1673ffffffffffffffffffffffffffffffffffffffff1681526020019250505060206040518083038186803b1580156104c757600080fd5b505afa1580156104db573d6000803e3d6000fd5b505050506040513d60208110156104f157600080fd5b8101908080519060200190929190505050610557576040517f08c379a000000000000000000000000000000000000000000000000000000000815260040180806020018281038252602f815260200180610b12602f913960400191505060405180910390fd5b816001600085815260200190815260200160002081905550505050565b60008151116105eb576040517f08c379a00000000000000000000000000000000000000000000000000000000081526004018080602001828103825260118152602001807f746f6b656e49647320697320656d70747900000000000000000000000000000081525060200191505060405180910390fd5b60008090505b815181101561078c57600082828151811061060857fe5b6020026020010151905060008060009054906101000a900473ffffffffffffffffffffffffffffffffffffffff1673ffffffffffffffffffffffffffffffffffffffff16636352211e836040518263ffffffff1660e01b81526004018082815260200191505060206040518083038186803b15801561068657600080fd5b505afa15801561069a573d6000803e3d6000fd5b505050506040513d60208110156106b057600080fd5b810190808051906020019092919050505090508073ffffffffffffffffffffffffffffffffffffffff163373ffffffffffffffffffffffffffffffffffffffff1614610764576040517f08c379a000000000000000000000000000000000000000000000000000000000815260040180806020018281038252601a8152602001807f63616c6c6572206973206e6f7420746f6b656e2073656c6c657200000000000081525060200191505060405180910390fd5b60006001600084815260200190815260200160002081905550505080806001019150506105f1565b5050565b6000809054906101000a900473ffffffffffffffffffffffffffffffffffffffff1681565b60006001600083815260200190815260200160002054905060008060009054906101000a900473ffffffffffffffffffffffffffffffffffffffff1673ffffffffffffffffffffffffffffffffffffffff16636352211e846040518263ffffffff1660e01b81526004018082815260200191505060206040518083038186803b15801561084157600080fd5b505afa158015610855573d6000803e3d6000fd5b505050506040513d602081101561086b57600080fd5b81019080805190602001909291905050509050813410156108d7576040517f08c379a0000000000000000000000000000000000000000000000000000000008152600401808060200182810382526021815260200180610af16021913960400191505060405180910390fd5b8073ffffffffffffffffffffffffffffffffffffffff163373ffffffffffffffffffffffffffffffffffffffff161415610979576040517f08c379a00000000000000000000000000000000000000000000000000000000081526004018080602001828103825260168152602001807f63616c6c657220697320746f6b656e2073656c6c65720000000000000000000081525060200191505060405180910390fd5b60008190508073ffffffffffffffffffffffffffffffffffffffff166108fc349081150290604051600060405180830381858888f193505050501580156109c4573d6000803e3d6000fd5b506000809054906101000a900473ffffffffffffffffffffffffffffffffffffffff1673ffffffffffffffffffffffffffffffffffffffff166342842e0e8333876040518463ffffffff1660e01b8152600401808473ffffffffffffffffffffffffffffffffffffffff1673ffffffffffffffffffffffffffffffffffffffff1681526020018373ffffffffffffffffffffffffffffffffffffffff1673ffffffffffffffffffffffffffffffffffffffff1681526020018281526020019350505050600060405180830381600087803b158015610aa157600080fd5b505af1158015610ab5573d6000803e3d6000fd5b505050506000600160008681526020019081526020016000208190555050505050565b6001602052806000526040600020600091509050548156fe63616c6c65722073656e74206b6c6179206c6f776572207468616e207072696365746f6b656e206f776e657220646964206e6f7420617070726f766520546f6b656e53616c657320636f6e7472616374a265627a7a72315820e13745befbf31cf527d22204d5ab42de84aaab1c9fff0384350052157c99aa8164736f6c63430005100032",
  "source": "pragma solidity ^0.5.0;\r\n\r\nimport \"openzeppelin-solidity/contracts/token/ERC721/ERC721Full.sol\";\r\n\r\ncontract TokenSales {\r\n  ERC721Full public nftAddress;\r\n\r\n  mapping(uint256 => uint256) public tokenPrice;\r\n\r\n  constructor(address _tokenAddress) public {\r\n    nftAddress = ERC721Full(_tokenAddress);\r\n  }\r\n\r\n  function setForSale(uint256 _tokenId, uint256 _price) public {\r\n    address tokenOwner = nftAddress.ownerOf(_tokenId);\r\n    require(tokenOwner == msg.sender, \"caller is not token owner\");\r\n    require(_price > 0, \"price is zero or lower\");\r\n    require(nftAddress.isApprovedForAll(tokenOwner, address(this)), \"token owner did not approve TokenSales contract\");\r\n    tokenPrice[_tokenId] = _price;\r\n  }\r\n\r\n  function purchaseToken(uint _tokenId) public payable {\r\n    uint256 price = tokenPrice[_tokenId];\r\n    address tokenSeller = nftAddress.ownerOf(_tokenId);\r\n    require(msg.value >= price, \"caller sent klay lower than price\");\r\n    require(msg.sender != tokenSeller, \"caller is token seller\");\r\n    address payable payableTokenSeller = address(uint160(tokenSeller));\r\n    payableTokenSeller.transfer(msg.value);\r\n    nftAddress.safeTransferFrom(tokenSeller, msg.sender, _tokenId);\r\n    tokenPrice[_tokenId] = 0;\r\n  }\r\n\r\n  function removeTokenOnSale(uint256[] memory tokenIds) public {\r\n    require(tokenIds.length > 0, \"tokenIds is empty\");\r\n    for (uint i=0; i<tokenIds.length; i++) {\r\n      uint256 tokenId = tokenIds[i];\r\n      address tokenSeller = nftAddress.ownerOf(tokenId);\r\n      require(msg.sender == tokenSeller, \"caller is not token seller\");\r\n      tokenPrice[tokenId] = 0;\r\n    }\r\n  }\r\n}",
  "sourcePath": "D:/app/klaytn/project_codes/7.numbergame/contracts/TokenSales.sol",
  "compiler": {
    "name": "solc",
    "version": "0.5.16+commit.9c3226ce.Emscripten.clang"
  },
  "schemaVersion": "3.3.3",
  "updatedAt": "2022-04-21T01:22:49.605Z",
  "networkType": "ethereum",
  "devdoc": {
    "methods": {}
  },
  "userdoc": {
    "methods": {}
  }
}